{
  "contractName": "FirstContract",
  "abi": [
    {
      "constant": true,
      "inputs": [],
      "name": "solde",
      "outputs": [
        {
          "name": "",
          "type": "uint256"
        }
      ],
      "payable": false,
      "stateMutability": "view",
      "type": "function"
    },
    {
      "constant": false,
      "inputs": [
        {
          "name": "valeur",
          "type": "uint256"
        }
      ],
      "name": "setEther",
      "outputs": [],
      "payable": true,
      "stateMutability": "payable",
      "type": "function"
    },
    {
      "constant": true,
      "inputs": [],
      "name": "getTotal",
      "outputs": [
        {
          "name": "",
          "type": "uint256"
        }
      ],
      "payable": false,
      "stateMutability": "view",
      "type": "function"
    },
    {
      "constant": true,
      "inputs": [],
      "name": "getEther",
      "outputs": [
        {
          "name": "",
          "type": "uint256"
        }
      ],
      "payable": false,
      "stateMutability": "view",
      "type": "function"
    },
    {
      "payable": true,
      "stateMutability": "payable",
      "type": "fallback"
    }
  ],
  "bytecode": "0x6060604052341561000f57600080fd5b6101648061001e6000396000f300606060405260043610610062576000357c0100000000000000000000000000000000000000000000000000000000900463ffffffff168063444c8dd21461006d578063638fea0714610096578063775a25e3146100ae578063de0ff7c5146100d7575b61006b34610100565b005b341561007857600080fd5b61008061010a565b6040518082815260200191505060405180910390f35b6100ac6004808035906020019091905050610100565b005b34156100b957600080fd5b6100c1610110565b6040518082815260200191505060405180910390f35b34156100e257600080fd5b6100ea61012f565b6040518082815260200191505060405180910390f35b8060008190555050565b60005481565b60003073ffffffffffffffffffffffffffffffffffffffff1631905090565b600080549050905600a165627a7a72305820b5e9871b676c457fda77051729973d85750dd8ce15c837dafd5894f0b35005250029",
  "source": "pragma solidity ^0.4.0;\n\n  /**\n   * Mon premier Smart Contract\n   * @dev Charles Azanlekor <contact@grydl.com>\n   * 2018.01.20\n   * V 1.0\n   */\ncontract FirstContract {\n\n   //Variable qui stocke la valeur de l'Ether reçue\n   uint public solde;\n\n  /**\n   * @dev Fallback function qui permet de recevoir les Ethers\n   * <msg.value> permet de retrouver la valeur d'Ether reçu \n   * C'est cette fonction qui est appelée lorsque l'utilisateur envoie des Ethers aux\n   * Smart Contract sans appeler aucune fonction\n   */\n   function () public payable {\n    setEther(msg.value);\n   }\n\n  /**\n   * Méthode permattant d'affeter une valeur à la variable <solde> \n   * Nous pouvons ainsi affecter la valeur de l'Ether reçue à la variable <solde>\n   */\n   function setEther (uint valeur) public payable {\n       solde = valeur;\n   }\n\n   /**\n    * Méthode permettant de retrouver la valeur de la variable <solde>\n    * Nous pouvons ainsi retrouver la valeur stockée dans la variable <solde>\n    */\n   function getEther() public constant returns (uint) {\n       return solde;       \n   }\n\n   /**\n    * Méthode permettant de retrouver la balance ou le solde d'Ether du Smart Contract\n    */\n   function getTotal() public constant returns (uint) {\n       return this.balance;\n   }\n    \n}",
  "sourcePath": "/projet/contracts/FirstContract.sol",
  "compiler": {
    "name": "solc",
    "version": "0.4.18+commit.9cf6e910.Emscripten.clang"
  },
  "schemaVersion": "1.0.1",
  "updatedAt": "2018-01-24T01:00:22.328Z"
}